:100000000C9435000C9422030C945D000C945D005C
:100010000C945D000C945D000C945D000C945D00EC
:100020000C9446020C945D000C945D000C945F00EF
:100030000C945D000C945D000C945D000C945D00CC
:100040000C945D000C945D000C945D000C945D00BC
:100050000C945D000C945D000C945D000C945D00AC
:100060000C945D000C945D00750411241FBECFEF4D
:10007000D8E0DEBFCDBF11E0A0E0B1E0EEE2F0E1FC
:1000800002C005900D92A831B107D9F721E0A8E18F
:10009000B1E001C01D92AA39B207E1F710E0C5E353
:1000A000D0E004C02197FE010E942505C433D1078A
:1000B000C9F70E9410040C9415080C9400001F92BC
:1000C0000F920FB60F9211248F939F93AF93BF930C
:1000D0008091180190911901A0911A01B0911B0112
:1000E0000196A11DB11D8093180190931901A09351
:1000F0001A01B0931B01BF91AF919F918F910F9007
:100100000FBE0F901F901895CB01BA0120E43FE17C
:1001100040E050E00E940305E1E8F0E080818A6061
:100120008083832F99278093890020938800EFE6AE
:10013000F0E080818260808378940895F8946091E3
:1001400018017091190180911A0190911B01789406
:1001500008950895539AE0EBF0E0808180618083F8
:1001600080818F7D808380818E7F808380818D7F61
:100170008083E1EBF0E08081877F808380818160F4
:10018000808380818D7F808380818B7F80836632B6
:10019000710599F480EC8093B400E0E7F0E0808191
:1001A00084608083E9E6F0E0808182608083E89A61
:1001B0004632510509F072C008C06833710509F074
:1001C0005EC08DE78093B4005AC0EEE6F1E088E2AD
:1001D00090E0918380838CE390E0938382838CEA28
:1001E00090E09583848380E590E09783868345C083
:1001F0006833710509F041C0EEE6F1E087E390E075
:100200009183808382E590E0938382838EEE90E0F9
:10021000958384838EE690E0978386832EC048334F
:10022000510559F56632710599F4EEE6F1E08EE17B
:1002300090E0918380838CE290E0938382838FE7C8
:1002400090E0958384838CE390E09783868315C048
:100250006833710591F4EEE6F1E08AE290E0918373
:1002600080838FE390E09383828382EB90E0958399
:10027000848383E590E09783868378940895E0E70C
:10028000F0E0808184608083E9E6F0E08081826034
:100290008083E89A4632510511F6AACF48335105BA
:1002A00061F7C3CF80915001089580915101882357
:1002B00011F11092510120E030E060E0A9014F5FA0
:1002C0005F4FFA01EE5AFE4F808190E002C0880F26
:1002D000991F2A95E2F7682B9A014830510571F76A
:1002E00080915B01962F9170981308C06093500124
:1002F00081E090E0089580E090E008958FEF9FEF17
:100300000895ECE7F1E082E0808384E0818380E07F
:1003100090E0A62FB0E044E09D01082E02C0359584
:1003200027950A94E2F7217022834383019632963F
:100330008830910589F7ECE7F1E06170628B84E029
:10034000838B93E0948B858B168A81E090E0909369
:1003500079018093780108956F927F928F929F9296
:10036000AF92BF92CF92DF92EF92FF920F931F93C3
:10037000CF93DF938EE691E0DC016D917C91119734
:10038000AB014B5F5F4F6550710912960D90BC91A8
:10039000A02DFD0135963D0125E0621A7108DC01B2
:1003A00014960D911C911597E80125960550110999
:1003B0001696ED90FC9017976701B5E0CB0ED11C17
:1003C00025E0E21AF10820E030E06894BB24B2F89E
:1003D0000F2EF3E08F2EF02D6894992491F8AA2423
:1003E000A394C901880F991FDC01A35EBE4F8D91B4
:1003F0009C91481759074CF08617970734F0C901AC
:100400008E5A9E4FDC011C9229C0E817F9074CF068
:100410008615970534F0C9018E5A9E4FDC01AC92C7
:100420001DC0C817D9074CF08017910734F0C901D7
:100430008E5A9E4FDC019C9211C0C816D9064CF012
:100440008E159F0534F0C9018E5A9E4FDC018C92A7
:1004500005C0C9018E5A9E4FDC01BC922F5F3F4FF1
:100460002B30310509F0BDCF81E080935101DF9140
:10047000CF911F910F91FF90EF90DF90CF90BF90A1
:10048000AF909F908F907F906F9008951F920F92E2
:100490000FB60F921124CF92DF92EF92FF922F931B
:1004A0004F935F936F937F938F939F93AF93BF937C
:1004B000EF93FF931092B20080916A0190916B01CB
:1004C000A0916C01B0916D010196A11DB11D8093A9
:1004D0006A0190936B01A0936C01B0936D018091C0
:1004E000780190917901892B39F110926A0110926B
:1004F0006B0110926C0110926D01109279011092B3
:10050000780181E090E0909377018093760180916B
:100510006A0190916B01A0916C01B0916D01809383
:10052000660190936701A0936801B0936901E0EBC5
:10053000F0E08081806180838091760190917701E5
:10054000892B09F466C0E0917A01F0917B01E458AF
:10055000FE4F2081409166015091670160916801D2
:1005600070916901C0906A01D0906B01E0906C01BC
:10057000F0906D01E22FF0E0EE0FFF1FEF5FFE4FF6
:1005800080819181092E000CAA0BBB0B840F951F53
:10059000A61FB71FC816D906EA06FB0630F124309D
:1005A00031F4E0EBF0E080818061808305C0E0EB16
:1005B000F0E080818F7E808380917A0190917B0131
:1005C000019690937B0180937A0180916A019091CA
:1005D0006B01A0916C01B0916D01809366019093C5
:1005E0006701A0936801B093690180917A019091AD
:1005F0007B0147979CF010927B0110927A01109238
:10060000770110927601E0EBF0E080818F7E8083AD
:1006100005C0E0EBF0E080818F7E8083FF91EF9159
:10062000BF91AF919F918F917F916F915F914F910A
:100630002F91FF90EF90DF90CF900F900FBE0F9013
:100640001F9018951F920F920FB60F9211242F939F
:100650003F934F935F936F937F938F939F93AF934A
:10066000BF93EF93FF9380916A0190916B01A091EA
:100670006C01B0916D0180935E0190935F01A09336
:100680006001B093610180915E0190915F01A09142
:100690006001B091610140916201509163016091EC
:1006A000640170916501841B950B40915E0150912E
:1006B0005F0160916001709161014093620150930C
:1006C000630160936401709365019C0128573109AF
:1006D00022383105C0F41092370110923601E091B2
:1006E0003601F0913701EE0FFF1FE85CFE4F91835A
:1006F0008083809136019091370101969093370164
:10070000809336013CC09C012150310927373105C7
:10071000B0F5E0913601F0913701EE0FFF1FE85C74
:10072000FE4F91838083809136019091370101962D
:100730009093370180933601809136019091370173
:100740000B97ECF0109237011092360181E0809304
:10075000350120E030E0C901880F991FFC01E85CF9
:10076000FE4F40815181FC01E35EFE4F5183408387
:100770002F5F3F4F2B30310571F70E94AC01FF9185
:10078000EF91BF91AF919F918F917F916F915F9109
:100790004F913F912F910F900FBE0F901F90189582
:1007A0006091970188E991E00E94810188E991E0D8
:1007B0000E945501019731F488E991E00E945201AD
:1007C000863039F08FE59AEE0197F1F700C000000E
:1007D000E7CF8FE59AEE0197F1F700C0000008958A
:1007E000CF9388E991E00E945501019761F088E973
:1007F00091E00E9455010196A1F765E188E991E039
:100800000E948101EECF88E991E00E945201C82F39
:1008100066E088E991E00E9481018C2FCF910895D4
:1008200040E054E264EF70E08CE191E00E948400CB
:1008300000E815E220E030E040E054E264EF70E0D0
:1008400089E991E00E947F0480910001882349F0AA
:1008500048E350E066E270E088E991E00E94AA0077
:1008600008C046E250E068E370E088E991E00E9449
:10087000AA0080910001882351F18CE191E00E944F
:100880009E00009193011091940120919501309167
:1008900096010C5E1F4F2F4F3F4F60177107820765
:1008A000930738F3809197010E94D00380919701BC
:1008B0008F5F809397016BE071E089E991E00E947E
:1008C000A6046EE689E991E00E949E04D2CF0E94C0
:1008D000F003682F70E089E991E00E94D0046AE09B
:1008E00089E991E00E949E04C4CF89E991E00E94C9
:1008F0007E0488E991E00E94A900089508950F936D
:100900001F93CB01BA01689413F896958795779554
:1009100067951694D1F7A90198010E94030521500B
:1009200031093093C5002093C40088E18093C10051
:1009300086E08093C2001F910F910895E0ECF0E0F3
:10094000808185FFFDCF6093C6000895CF92DF922E
:10095000EF92FF920F931F93CF93DF937C01EB01F4
:100960008B01C12CD12CFE0101900020E9F73197B9
:10097000EC1BFD0BCE16DF0650F4F80161918F01E0
:10098000C7010E949E04FFEFCF1ADF0AECCFDF9170
:10099000CF911F910F91FF90EF90DF90CF9008952E
:1009A000EF92FF920F931F93CF93DF93CDB7DEB7F4
:1009B00064970FB6F894DEBF0FBECDBF7C017F9366
:1009C0006F9384E191E09F938F938E010F5F1F4F90
:1009D0001F930F930E942B05B801C7010E94A60424
:1009E0000F900F900F900F900F900F9064960FB68E
:1009F000F894DEBF0FBECDBFDF91CF911F910F9155
:100A0000FF90EF900895A1E21A2EAA1BBB1BFD01D7
:100A10000DC0AA1FBB1FEE1FFF1FA217B307E407DD
:100A2000F50720F0A21BB30BE40BF50B661F771F35
:100A3000881F991F1A9469F7609570958095909515
:100A40009B01AC01BD01CF010895EE0FFF1F059082
:100A5000F491E02D0994AEE0B0E0E1E3F5E00C9410
:100A6000EC070D891E8986E08C831A8309838FEF3A
:100A70009FE79E838D83AE01475E5F4F6F89788DC0
:100A8000CE0101960E944D05EF81F885E00FF11F20
:100A900010822E96E4E00C940808ABE0B0E0E3E5A9
:100AA000F5E00C94DE076C017B018A01FC011782E2
:100AB0001682838181FFCCC1CE0101963C01F601F3
:100AC0009381F70193FD859193FF81917F018823A5
:100AD00009F4BAC1853239F493FD859193FF819170
:100AE0007F01853229F4B60190E00E944407E7CFE8
:100AF000912C212C312CFFE1F315D8F08B3279F0B9
:100B000038F4803279F08332A1F4232D20611DC0A6
:100B10008D3261F0803369F4232D216016C0832D5E
:100B20008260382EE32DE4603E2E2AC0F32DF8605B
:100B30001DC037FC2DC020ED280F2A3040F08E322A
:100B4000B9F436FC81C1232D2064322E19C036FE43
:100B500006C08AE0989E200D1124922E11C0EAE072
:100B60002E9E200D1124222EF32DF0623F2E08C060
:100B70008C3621F4832D8068382E02C0883641F4EB
:100B8000F70193FD859193FF81917F018111B3CF8F
:100B9000982F9F7D9554933028F40C5F1F4F9FE34F
:100BA00099830DC0833631F0833771F0833509F0B6
:100BB00059C021C0F801808189830E5F1F4F8824AE
:100BC0008394912C530113C02801F2E04F0E511C65
:100BD000F801A080B18036FE03C0692D70E002C02C
:100BE0006FEF7FEFC5010E9439074C018201F32DA1
:100BF000FF773F2E16C0280122E0420E511CF8015B
:100C0000A080B18036FE03C0692D70E002C06FEF96
:100C10007FEFC5010E942E074C01F32DF0683F2E97
:100C2000820133FC1BC0822D90E088169906B0F437
:100C3000B60180E290E00E9444072A94F4CFF501C7
:100C400037FC859137FE81915F01B60190E00E94EB
:100C5000440721102A9421E0821A910881149104FA
:100C600071F7E8C0843611F0893641F5F80137FE96
:100C700007C060817181828193810C5F1F4F08C022
:100C800060817181072E000C880B990B0E5F1F4F3E
:100C9000F32DFF763F2E97FF09C0909580957095B4
:100CA00061957F4F8F4F9F4FF0683F2E2AE030E0D5
:100CB000A3010E948007882E861845C0853731F42D
:100CC000232D2F7EB22E2AE030E025C0932D997F70
:100CD000B92E8F36C1F018F4883579F0B5C0803759
:100CE00019F0883721F0B0C0E92FE061BE2EB4FEC4
:100CF0000DC0FB2DF460BF2E09C034FE0AC0292FA1
:100D00002660B22E06C028E030E005C020E130E0C9
:100D100002C020E132E0F801B7FE07C060817181B6
:100D2000828193810C5F1F4F06C06081718180E0DA
:100D300090E00E5F1F4FA3010E948007882E861847
:100D4000FB2DFF773F2E36FE0DC0232D2E7FA22ECA
:100D5000891458F434FE0BC032FC09C0832D8E7EFA
:100D6000A82E05C0B82CA32C03C0B82C01C0B92CE8
:100D7000A4FE0FC0FE01E80DF11D8081803321F437
:100D80009A2D997EA92E09C0A2FE06C0B394B394F1
:100D900004C08A2D867809F0B394A3FC11C0A0FE8C
:100DA00006C0B21488F4280C922C9B180EC0B21402
:100DB00060F4B60180E290E00E944407B394F7CF5C
:100DC000B21418F42B1802C0982C212CA4FE10C0C9
:100DD000B60180E390E00E944407A2FE17C0A1FC88
:100DE00003C088E790E002C088E590E0B6010CC03F
:100DF0008A2D867859F0A1FE02C08BE201C080E204
:100E0000A7FC8DE2B60190E00E944407891438F4F3
:100E1000B60180E390E00E9444079A94F7CF8A9449
:100E2000F301E80DF11D8081B60190E00E944407B6
:100E30008110F5CF222009F442CEB60180E290E085
:100E40000E9444072A94F6CFF6018681978102C05A
:100E50008FEF9FEF2B96E2E10C94FA07FC010590CF
:100E6000615070400110D8F7809590958E0F9F1FAC
:100E70000895FC016150704001900110D8F78095F1
:100E800090958E0F9F1F08950F931F93CF93DF931D
:100E9000FB01238121FD03C08FEF9FEF2CC022FFB8
:100EA00016C046815781248135814217530744F487
:100EB000A081B1819D012F5F3F4F318320838C93AF
:100EC000268137812F5F3F4F3783268314C08B01E4
:100ED000EC01FB010084F185E02D0995892BE1F6F9
:100EE000D80116968D919C911797019617969C9311
:100EF0008E931697CE01DF91CF911F910F91089598
:100F0000FA01AA27283051F1203181F1E8946F933A
:100F10006E7F6E5F7F4F8F4F9F4FAF4FB1E03ED0E0
:100F2000B4E03CD0670F781F891F9A1FA11D680F7E
:100F3000791F8A1F911DA11D6A0F711D811D911DB1
:100F4000A11D20D009F468943F912AE0269F112426
:100F50003019305D3193DEF6CF010895462F47708A
:100F6000405D4193B3E00FD0C9F7F6CF462F4F70E5
:100F7000405D4A3318F0495D31FD4052419302D043
:100F8000A9F7EACFB4E0A6959795879577956795E9
:100F9000BA95C9F700976105710508959B01AC01E9
:100FA0000A2E06945795479537952795BA95C9F710
:100FB000620F731F841F951FA01D08952F923F92EB
:100FC0004F925F926F927F928F929F92AF92BF9259
:100FD000CF92DF92EF92FF920F931F93CF93DF9305
:100FE000CDB7DEB7CA1BDB0B0FB6F894DEBF0FBE62
:100FF000CDBF09942A88398848885F846E847D84AF
:101000008C849B84AA84B984C884DF80EE80FD80B0
:101010000C811B81AA81B981CE0FD11D0FB6F89426
:0E102000DEBF0FBECDBFED010895F894FFCFE7
:10102E00011400280096003C00140073656E7421B4
:08103E00002564002575000087
:00000001FF
