S013000069725F746573745F6370702E7372656375
S11300000C9435000C94BE020C945D000C945D00BD
S11300100C945D000C945D000C945D000C945D00E8
S11300200C94E8010C945D000C945D000C945D004C
S11300300C945D000C945D000C945D000C945D00C8
S11300400C945D000C945D000C945D000C945D00B8
S11300500C945D000C945D000C945D000C945D00A8
S11300600C945D000C945D009D0311241FBECFEF22
S1130070D8E0DEBFCDBF11E0A0E0B1E0E0EFF7E0F3
S113008002C005900D92AC31B107D9F721E0ACE183
S1130090B1E001C01D92AE38B207E1F710E0C5E34C
S11300A0D0E004C02197FE010E94F003C433D107BD
S11300B0C9F70E9459030C94F6030C9400000895A8
S11300C0539AE0EBF0E080818061808380818F7DB2
S11300D0808380818E7F808380818D7F8083E1EB2C
S11300E0F0E08081877F808380818160808380814C
S11300F08D7F808380818B7F80836632710599F444
S113010080EC8093B400E0E7F0E080818460808339
S1130110E9E6F0E0808182608083E89A4632510506
S113012009F072C008C06833710509F05EC08DE73C
S11301308093B4005AC0E7E6F1E088E290E091834E
S113014080838CE390E09383828380E590E09583C1
S1130150848384E690E09783868345C06833710581
S113016009F041C0E7E6F1E08FE390E091838083FA
S11301708EE590E09383828381E890E09583848385
S11301808EE990E0978386832EC04833510559F554
S11301906632710599F4E7E6F1E08EE190E091832F
S11301A080838CE290E0938382838DE390E0958357
S11301B084838AE490E09783868315C0683371054D
S11301C091F4E7E6F1E08FE290E09183808386E4A6
S11301D090E09383828380E690E09583848386E72E
S11301E090E09783868378940895E0E7F0E0808137
S11301F084608083E9E6F0E0808182608083E89A0D
S11302004632510511F6AACF4833510561F7C3CFE1
S113021010924B0140E050E080E0BA016F5F7F4FE5
S1130220FB01E45BFE4F208130E002C0220F331F4C
S11302304A95E2F7822BAB016830710571F7089596
S113024080914B010895E5E7F1E082E0808384E04A
S1130250818380E090E0A62FB0E044E09D01082E69
S113026002C0359527950A94E2F7217022834383CF
S1130270019632968830910589F7E5E7F1E06170DF
S1130280628B84E0838B93E0948B858B168A81E068
S113029090E0909372018093710108956F927F9220
S11302A08F929F92AF92BF92CF92DF92EF92FF9282
S11302B00F931F93CF93DF9387E691E0DC016D9159
S11302C07C911197AB014B5F5F4F6550710912969A
S11302D00D90BC91A02DFD0135963D0125E0621ADB
S11302E07108DC0114960D911C911597E80125966F
S11302F0055011091696ED90FC9017976701B5E02B
S1130300CB0ED11C25E0E21AF10820E030E068941D
S1130310BB24B2F80F2EF3E08F2EF02D68949924AD
S113032091F8AA24A394C901880F991FDC01A45E43
S1130330BE4F8D919C91481759074CF0861797072B
S113034034F0C901845B9E4FDC011C9229C0E8177C
S1130350F9074CF08615970534F0C901845B9E4F6C
S1130360DC01AC921DC0C817D9074CF08017910767
S113037034F0C901845B9E4FDC019C9211C0C81605
S1130380D9064CF08E159F0534F0C901845B9E4F4D
S1130390DC018C9205C0C901845B9E4FDC01BC92D8
S11303A02F5F3F4F2B30310509F0BDCF81E08093A3
S11303B04B01DF91CF911F910F91FF90EF90DF9050
S11303C0CF90BF90AF909F908F907F906F90089543
S11303D01F920F920FB60F921124CF92DF92EF92D9
S11303E0FF922F934F935F936F937F938F939F937A
S11303F0AF93BF93EF93FF931092B2008091630188
S113040090916401A0916501B09166010196A11DCE
S1130410B11D8093630190936401A0936501B0932F
S113042066018091710190917201892B39F11092CA
S1130430630110926401109265011092660110929A
S113044072011092710181E090E0909370018093A9
S11304506F018091630190916401A0916501B09155
S1130460660180935F0190936001A0936101B09352
S11304706201E0EBF0E080818061808380916F0114
S113048090917001892B09F465C0E0917301F0919A
S11304907401EB58FE4F208140915F01509160013F
S11304A06091610170916201C0906301D090640118
S11304B0E0906501F0906601E22FF0E0EE0FFF1F7F
S11304C0EE5EFE4F80819181092E000CAA0BBB0BBE
S11304D0840F951FA61FB71FC816D906EA06FB0688
S11304E030F1243031F4E0EBF0E0808180618083EE
S11304F005C0E0EBF0E080818F7E80838091730102
S1130500909174010196909374018093730180918A
S1130510630190916401A0916501B091660180939B
S11305205F0190936001A0936101B0936201809197
S113053073019091740147976CF0109274011092BA
S113054073011092700110926F01E0EBF0E0808172
S11305508F7E8083FF91EF91BF91AF919F918F9197
S11305607F916F915F914F912F91FF90EF90DF906A
S1130570CF900F900FBE0F901F9018951F920F925F
S11305800FB60F9211242F933F934F935F936F9362
S11305907F938F939F93AF93BF93EF93FF93809138
S11305A0630190916401A0916501B091660180930B
S11305B0570190935801A0935901B0935A01809127
S11305C0570190915801A0915901B0915A0140915D
S11305D05B0150915C0160915D0170915E01841B2F
S11305E0950B4091570150915801609159017091B8
S11305F05A0140935B0150935C0160935D017093D9
S11306005E019C01215031092E353105A0F4E091A1
S11306103301F0913401EE0FFF1FEB5CFE4F918329
S11306208083809133019091340101969093340139
S1130630809333012DC09C012056310928363105A1
S113064038F5E0913301F0913401EE0FFF1FEB5CBC
S1130650FE4F91838083109234011092330181E024
S11306608093320120E030E0C901880F991FFC011A
S1130670EB5CFE4F40815181FC01E45EFE4F5183EF
S113068040832F5F3F4F2B30310571F70E944E019D
S1130690FF91EF91BF91AF919F918F917F916F9156
S11306A05F914F913F912F910F900FBE0F901F902C
S11306B0189500E815E220E030E040E054E264EFF1
S11306C070E08DE891E00E94A70346E250E066E204
S11306D070E08CE891E00E94600001E111E08091FB
S11306E011018823D1F0C0E0D1E069918CE891E058
S11306F00E9423018FE39CE90197F1F700C00000F9
S1130700C017D10791F79FEF29E688E19150204067
S11307108040E1F700C00000E2CF8CE891E00E9445
S113072020018823E1F28CE891E00E940801682FFF
S11307308DE891E00E94C603D2CF8DE891E00E943B
S1130740A6038CE891E00E945F00089508950F933A
S11307501F93CB01BA01689413F896958795779502
S113076067951694D1F7A90198010E94CE032150F0
S113077031093093C5002093C40088E18093C100FF
S113078086E08093C2001F910F910895E0ECF0E0A1
S1130790808185FFFDCF6093C6000895A1E21A2EE3
S11307A0AA1BBB1BFD010DC0AA1FBB1FEE1FFF1F11
S11307B0A217B307E407F50720F0A21BB30BE40B61
S11307C0F50B661F771F881F991F1A9469F76095A8
S11307D07095809590959B01AC01BD01CF01089562
S11307E0EE0FFF1F0590F491E02D0994F894FFCFCC
S11307F068656C6C6F20696E667261726564210A4B
S10F08000001140028003C00500014000B
S9030000FC
