S00F000049525F746573742E737265635B
S11300000C9434000C942B030C9451000C94510068
S11300100C9451000C9451000C9451000C94510018
S11300200C9455020C9451000C9451000C94510002
S11300300C9451000C9451000C9451000C945100F8
S11300400C9451000C9451000C9451000C945100E8
S11300500C9451000C9451000C9451000C945100D8
S11300600C9451000C94510011241FBECFEFD8E022
S1130070DEBFCDBF11E0A0E0B1E0E8E2FEE002C0E7
S113008005900D92A632B107D9F721E0A6E2B1E0BE
S113009001C01D92A839B207E1F70E9453000C94E5
S11300A012070C94000087E690E00E94C60366E203
S11300B070E086E290E00E948F0001E111E08091FF
S11300C026018823C1F0C0E0D1E089910E9490010B
S11300D08FE39CE90197F1F700C000000C171D079E
S11300E0A1F79FEF29E688E1915020408040E1F795
S11300F000C00000E4CF80912701882339F00E94DA
S11301008D018823E1F20E946D01D9CF0E948A01FA
S11301108823A9F20E9455010E94D103D0CF0F93E6
S11301201F93CF93DF939C01539AE0EBF0E080811F
S11301308061808380818F7D808380818E7F8083B6
S113014090819D7F9083E1EBF0E09081977F908395
S113015090819160908390819D7F908390819B7F1B
S113016090832632310599F480EC8093B400E0E763
S1130170F0E0808184608083E9E6F0E08081826041
S11301808083E89A6632710509F086C008C0283376
S1130190310509F071C08DE78093B4006DC0E0E9CA
S11301A0F1E088E290E0918380838CE390E0938394
S11301B0828380E590E09583848384E690E097834E
S11301C0868345C02833310509F041C0E0E9F1E0F8
S11301D08FE390E0918380838EE590E09383828324
S11301E081E890E0958384838EE990E09783868309
S11301F02EC06833710559F52632310599F4E0E9CA
S1130200F1E08EE190E0918380838CE290E093832F
S113021082838DE390E0958384838AE490E09783DE
S1130220868315C02833310591F4E0E9F1E08FE2CB
S113023090E09183808386E490E09383828380E6D8
S113024090E09583848386E790E097838683C0E972
S1130250D1E008E911E0899199910E94FB0381E1C1
S113026091E00E94D903C017D107A9F784E191E076
S11302700E94D903789414C0E0E7F0E080818460A0
S11302808083E9E6F0E0808182608083E89A6632C8
S1130290710509F0AECF96CF68337105C1F6AFCFC3
S11302A0DF91CF911F910F9108951092290140E0A1
S11302B050E080E0BA016F5F7F4FFB01E559FE4FCC
S11302C0208130E002C0220F331F4A95E2F7822BCF
S11302D0AB016830710571F70895CF93DF93C0E0E7
S11302E0D0E0FE01EE0FFF1FE658FE4F80819181A2
S11302F00E94FB0381E191E00E94D9032196CB3057
S1130300D10579F78AE00E94D10310922801DF9188
S1130310CF9108958091290108958091280108952D
S1130320E4E5F1E092E0908394E0918320E030E012
S1130330682F70E0AB01022E02C0559547950A94D0
S1130340E2F74170428393832F5F3F4F3296283008
S1130350310581F7E4E5F1E08170828B84E0838BE1
S113036093E0948B858B168A81E090E0909335011D
S11303708093340108956F927F928F929F92AF92EF
S1130380BF92CF92DF92EF92FF920F931F93CF937E
S1130390DF9380E991E0DC016D917C911197AB01D1
S11303A04B5F5F4F6550710912960D90BC91A02D63
S11303B0FD0135963D0125E0621A7108DC011496B1
S11303C00D911C911597E801259605501109169673
S11303D0ED90FC9017976701B5E0CB0ED11C25E09A
S11303E0E21AF10820E030E06894BB24B2F80F2E42
S11303F0F3E08F2EF02D6894992491F8AA24A39405
S1130400C901880F991FDC01A65CBE4F8D919C9198
S1130410481759074CF08617970734F0C9018559D6
S11304209E4FDC011C9229C0E817F9074CF0861591
S1130430970534F0C90185599E4FDC01AC921DC06B
S1130440C817D9074CF08017910734F0C9018559B2
S11304509E4FDC019C9211C0C816D9064CF08E1533
S11304609F0534F0C90185599E4FDC018C9205C06B
S1130470C90185599E4FDC01BC922F5F3F4F2B3041
S1130480310509F0BDCF81E080932901DF91CF913F
S11304901F910F91FF90EF90DF90CF90BF90AF909E
S11304A09F908F907F906F9008951F920F920FB638
S11304B00F921124CF92DF92EF92FF922F934F93DA
S11304C05F936F937F938F939F93AF93BF93EF93B8
S11304D0FF931092B2008091500190915101A0912C
S11304E05201B09153010196A11DB11D8093500199
S11304F090935101A0935201B09353018091340120
S113050090913501892B39F11092500110925101CB
S1130510109252011092530110923501109234013D
S113052081E090E0909333018093320180915001F7
S113053090915101A0915201B091530180937601A1
S113054090937701A0937801B0937901E0EBF0E008
S11305508081806180838091320190913301892B65
S113056009F465C0E0913601F0913701EC5AFE4F71
S113057020814091760150917701609178017091CA
S11305807901C0905001D0905101E0905201F09057
S11305905301E22FF0E0EE0FFF1FEA5EFE4F808171
S11305A09181092E000CAA0BBB0B840F951FA61F6B
S11305B0B71FC816D906EA06FB0630F1243031F419
S11305C0E0EBF0E080818061808305C0E0EBF0E047
S11305D080818F7E808380913601909137010196CE
S11305E0909337018093360180915001909151018D
S11305F0A0915201B09153018093760190937701B9
S1130600A0937801B09379018091360190913701DC
S113061047976CF010923701109236011092330113
S113062010923201E0EBF0E080818F7E8083FF91B5
S1130630EF91BF91AF919F918F917F916F915F9156
S11306404F912F91FF90EF90DF90CF900F900FBEBE
S11306500F901F9018951F920F920FB60F921124AE
S11306602F933F934F935F936F937F938F939F93B6
S1130670AF93BF93EF93FF938091500190915101F9
S1130680A0915201B091530180932A0190932B01C0
S1130690A0932C01B0932D0180912A0190912B01FC
S11306A0A0912C01B0912D0140912E0150912F0168
S11306B06091300170913101841B950B40912A01A6
S11306C050912B0160912C0170912D0140932E01CA
S11306D050932F0160933001709331019C0121509C
S11306E031092E353105A0F4E0913801F09139013A
S11306F0EE0FFF1FE658FE4F9183808380913801EF
S113070090913901019690933901809338012DC05D
S11307109C01205631092836310538F5E09138011D
S1130720F0913901EE0FFF1FE658FE4F918380834D
S1130730109239011092380181E08093280120E061
S113074030E0C901880F991FFC01E658FE4F408133
S11307505181FC01E65CFE4F518340832F5F3F4F84
S11307602B30310571F70E94BB01FF91EF91BF91CE
S1130770AF919F918F917F916F915F914F913F9135
S11307802F910F900FBE0F901F9018959093C50056
S11307908093C40088E18093C10086E08093C20006
S11307A00895E0ECF0E0908195FFFDCF8093C600C2
S11307B00895EF92FF920F931F93CF93DF938C01D1
S11307C07C01C0E0D0E006C0F70181917F010E9466
S11307D0D1032196F80101900020E9F73197E01B3D
S11307E0F10BCE17DF0780F3DF91CF911F910F91AB
S11307F0FF90EF9008950F931F93CF93DF93CDB79E
S1130800DEB764970FB6F894DEBF0FBECDBF9F93DB
S11308108F9380E291E09F938F938E010F5F1F4F20
S11308201F930F930E942804C8010E94D9030F90BC
S11308300F900F900F900F900F9064960FB6F8944E
S1130840DEBF0FBECDBFDF91CF911F910F910895F1
S1130850AEE0B0E0EEE2F4E00C94E9060D891E8906
S113086086E08C831A8309838FEF9FE79E838D83B1
S1130870AE01475E5F4F6F89788DCE0101960E946D
S11308804A04EF81F885E00FF11F10822E96E4E010
S11308900C940507ABE0B0E0E0E5F4E00C94DB0673
S11308A06C017B018A01FC0117821682838181FF1E
S11308B0CCC1CE0101963C01F6019381F70193FD71
S11308C0859193FF81917F01882309F4BAC1853210
S11308D039F493FD859193FF81917F01853229F449
S11308E0B60190E00E944106E7CF912C212C312CD7
S11308F0FFE1F315D8F08B3279F038F4803279F0D7
S11309008332A1F4232D20611DC08D3261F0803328
S113091069F4232D216016C0832D8260382EE32DC7
S1130920E4603E2E2AC0F32DF8601DC037FC2DC0B4
S113093020ED280F2A3040F08E32B9F436FC81C104
S1130940232D2064322E19C036FE06C08AE0989EFC
S1130950200D1124922E11C0EAE02E9E200D1124A8
S1130960222EF32DF0623F2E08C08C3621F4832D05
S11309708068382E02C0883641F4F70193FD8591D2
S113098093FF81917F018111B3CF982F9F7D95545F
S1130990933028F40C5F1F4F9FE399830DC0833677
S11309A031F0833771F0833509F059C021C0F80163
S11309B0808189830E5F1F4F88248394912C530177
S11309C013C02801F2E04F0E511CF801A080B18041
S11309D036FE03C0692D70E002C06FEF7FEFC501E2
S11309E00E9436064C018201F32DFF773F2E16C07C
S11309F0280122E0420E511CF801A080B18036FE8D
S1130A0003C0692D70E002C06FEF7FEFC5010E9443
S1130A102B064C01F32DF0683F2E820133FC1BC0E2
S1130A20822D90E088169906B0F4B60180E290E039
S1130A300E9441062A94F4CFF50137FC859137FED4
S1130A4081915F01B60190E00E94410621102A9431
S1130A5021E0821A91088114910471F7E8C0843668
S1130A6011F0893641F5F80137FE07C060817181C4
S1130A70828193810C5F1F4F08C060817181072EB2
S1130A80000C880B990B0E5F1F4FF32DFF763F2E42
S1130A9097FF09C090958095709561957F4F8F4F12
S1130AA09F4FF0683F2E2AE030E0A3010E947D06AC
S1130AB0882E861845C0853731F4232D2F7EB22E1B
S1130AC02AE030E025C0932D997FB92E8F36C1F0EE
S1130AD018F4883579F0B5C0803719F0883721F0DB
S1130AE0B0C0E92FE061BE2EB4FE0DC0FB2DF46052
S1130AF0BF2E09C034FE0AC0292F2660B22E06C0BC
S1130B0028E030E005C020E130E002C020E132E01E
S1130B10F801B7FE07C060817181828193810C5F07
S1130B201F4F06C06081718180E090E00E5F1F4F0F
S1130B30A3010E947D06882E8618FB2DFF773F2E89
S1130B4036FE0DC0232D2E7FA22E891458F434FEB8
S1130B500BC032FC09C0832D8E7EA82E05C0B82C94
S1130B60A32C03C0B82C01C0B92CA4FE0FC0FE01F5
S1130B70E80DF11D8081803321F49A2D997EA92EF0
S1130B8009C0A2FE06C0B394B39404C08A2D86782B
S1130B9009F0B394A3FC11C0A0FE06C0B21488F4FB
S1130BA0280C922C9B180EC0B21460F4B60180E29B
S1130BB090E00E944106B394F7CFB21418F42B18B6
S1130BC002C0982C212CA4FE10C0B60180E390E052
S1130BD00E944106A2FE17C0A1FC03C088E790E072
S1130BE002C088E590E0B6010CC08A2D867859F0E1
S1130BF0A1FE02C08BE201C080E2A7FC8DE2B60137
S1130C0090E00E944106891438F4B60180E390E034
S1130C100E9441069A94F7CF8A94F301E80DF11DDE
S1130C208081B60190E00E9441068110F5CF222018
S1130C3009F442CEB60180E290E00E9441062A9473
S1130C40F6CFF6018681978102C08FEF9FEF2B9636
S1130C50E2E10C94F706FC0105906150704001102C
S1130C60D8F7809590958E0F9F1F0895FC016150D1
S1130C70704001900110D8F7809590958E0F9F1FBA
S1130C8008950F931F93CF93DF93FB01238121FDDD
S1130C9003C08FEF9FEF2CC022FF16C046815781FF
S1130CA0248135814217530744F4A081B1819D0109
S1130CB02F5F3F4F318320838C93268137812F5FB1
S1130CC03F4F3783268314C08B01EC01FB01008462
S1130CD0F185E02D0995892BE1F6D80116968D91C1
S1130CE09C911797019617969C938E931697CE0115
S1130CF0DF91CF911F910F910895FA01AA2728300F
S1130D0051F1203181F1E8946F936E7F6E5F7F4FD4
S1130D108F4F9F4FAF4FB1E03ED0B4E03CD0670F50
S1130D20781F891F9A1FA11D680F791F8A1F911DA3
S1130D30A11D6A0F711D811D911DA11D20D009F4F3
S1130D4068943F912AE0269F11243019305D319335
S1130D50DEF6CF010895462F4770405D4193B3E01E
S1130D600FD0C9F7F6CF462F4F70405D4A3318F0C5
S1130D70495D31FD4052419302D0A9F7EACFB4E076
S1130D80A6959795879577956795BA95C9F700972E
S1130D906105710508959B01AC010A2E06945795CF
S1130DA0479537952795BA95C9F7620F731F841F26
S1130DB0951FA01D08952F923F924F925F926F92BC
S1130DC07F928F929F92AF92BF92CF92DF92EF92D7
S1130DD0FF920F931F93CF93DF93CDB7DEB7CA1B58
S1130DE0DB0B0FB6F894DEBF0FBECDBF09942A8883
S1130DF0398848885F846E847D848C849B84AA842B
S1130E00B984C884DF80EE80FD800C811B81AA81B7
S1130E10B981CE0FD11D0FB6F894DEBF0FBECDBF82
S10B0E20ED010895F894FFCFE1
S1130E2868656C6C6F20696E667261726564210A0C
S1130E38002C20000A00140028003C005000140074
S1090E482564002575007D
S9030000FC
