S012000069725F6578616D706C652E73726563EC
S11300000C9435000C9408030C945D000C945D0072
S11300100C945D000C945D000C945D000C945D00E8
S11300200C9432020C945D000C945D000C945F00FF
S11300300C945D000C945D000C945D000C945D00C8
S11300400C945D000C945D000C945D000C945D00B8
S11300500C945D000C945D000C945D000C945D00A8
S11300600C945D000C945D006F0411241FBECFEF4F
S1130070D8E0DEBFCDBF11E0A0E0B1E0E4E4F9E0F8
S113008002C005900D92A632B107D9F721E0A6E28D
S1130090B1E001C01D92A13AB207E1F710E0C5E357
S11300A0D0E004C02197FE010E949A04C433D10712
S11300B0C9F70E94F5030C94A0040C9400001F924D
S11300C00F920FB60F9211248F939F93AF93BF9308
S11300D08091260190912701A0912801B0912901D6
S11300E00196A11DB11D8093260190932701A09331
S11300F02801B0932901BF91AF919F918F910F90E7
S11301000FBE0F901F901895CB01BA0120E43FE178
S113011040E050E00E947804E1E8F0E080818A60E9
S11301208083832F99278093890020938800EFE6AA
S1130130F0E080818260808378940895F8946091DF
S113014026017091270180912801909129017894CA
S113015008950895539AE0EBF0E0808180618083F4
S113016080818F7D808380818E7F808380818D7F5D
S11301708083E1EBF0E08081877F808380818160F0
S1130180808380818D7F808380818B7F80836632B2
S1130190710599F480EC8093B400E0E7F0E080818D
S11301A084608083E9E6F0E0808182608083E89A5D
S11301B04632510509F072C008C06833710509F070
S11301C05EC08DE78093B4005AC0E6E7F1E088E2B0
S11301D090E0918380838CE390E09383828380E535
S11301E090E09583848384E690E09783868345C07A
S11301F06833710509F041C0E6E7F1E08FE390E070
S1130200918380838EE590E09383828381E890E0FC
S1130210958384838EE990E0978386832EC0483348
S1130220510559F56632710599F4E6E7F1E08EE17E
S113023090E0918380838CE290E0938382838DE3CA
S113024090E0958384838AE490E09783868315C045
S11302506833710591F4E6E7F1E08FE290E0918371
S1130260808386E490E09383828380E690E09583A4
S1130270848386E790E09783868378940895E0E703
S1130280F0E0808184608083E9E6F0E08081826030
S11302908083E89A4632510511F6AACF48335105B6
S11302A061F7C3CF10925A0140E050E080E0BA01F8
S11302B06F5F7F4FFB01E55AFE4F208130E002C0A3
S11302C0220F331F4A95E2F7822BAB016830710588
S11302D071F7089580915A010895E4E8F1E082E00D
S11302E0808384E0818380E090E0A62FB0E044E046
S11302F09D01082E02C0359527950A94E2F72170D6
S113030022834383019632968830910589F7E4E885
S1130310F1E06170628B84E0838B93E0948B858B36
S1130320168A81E090E09093810180938001089582
S11303306F927F928F929F92AF92BF92CF92DF92F1
S1130340EF92FF920F931F93CF93DF9386E791E091
S1130350DC016D917C911197AB014B5F5F4F655050
S1130360710912960D90BC91A02DFD0135963D01A9
S113037025E0621A7108DC0114960D911C91159701
S1130380E8012596055011091696ED90FC901797F3
S11303906701B5E0CB0ED11C25E0E21AF10820E09C
S11303A030E06894BB24B2F80F2EF3E08F2EF02DCA
S11303B06894992491F8AA24A394C901880F991FD9
S11303C0DC01A55DBE4F8D919C91481759074CF0F7
S11303D08617970734F0C901855A9E4FDC011C9299
S11303E029C0E817F9074CF08615970534F0C901C0
S11303F0855A9E4FDC01AC921DC0C817D9074CF03A
S11304008017910734F0C901855A9E4FDC019C92F4
S113041011C0C816D9064CF08E159F0534F0C901D9
S1130420855A9E4FDC018C9205C0C901855A9E4FA6
S1130430DC01BC922F5F3F4F2B30310509F0BDCF5B
S113044081E080935A01DF91CF911F910F91FF902A
S1130450EF90DF90CF90BF90AF909F908F907F9060
S11304606F9008951F920F920FB60F921124CF929E
S1130470DF92EF92FF922F934F935F936F937F934B
S11304808F939F93AF93BF93EF93FF931092B20018
S11304908091720190917301A0917401B0917501E2
S11304A00196A11DB11D8093720190937301A093D5
S11304B07401B09375018091800190918101892B21
S11304C039F110927201109273011092740110921A
S11304D07501109281011092800181E090E0909367
S11304E07F0180937E018091720190917301A091AC
S11304F07401B091750180936E0190936F01A09384
S11305007001B0937101E0EBF0E080818061808341
S113051080917E0190917F01892B09F465C0E0915F
S11305208201F0918301EC57FE4F208140916E01CE
S113053050916F016091700170917101C0907201CE
S1130540D0907301E0907401F0907501E22FF0E017
S1130550EE0FFF1FEE5EFE4F80819181092E000C8D
S1130560AA0BBB0B840F951FA61FB71FC816D9066D
S1130570EA06FB0630F1243031F4E0EBF0E0808150
S11305808061808305C0E0EBF0E080818F7E808312
S113059080918201909183010196909383018093CD
S11305A082018091720190917301A0917401B091C4
S11305B0750180936E0190936F01A0937001B093C5
S11305C07101809182019091830147976CF01092A0
S11305D083011092820110927F0110927E01E0EB60
S11305E0F0E080818F7E8083FF91EF91BF91AF9186
S11305F09F918F917F916F915F914F912F91FF9078
S1130600EF90DF90CF900F900FBE0F901F90189532
S11306101F920F920FB60F9211242F933F934F9373
S11306205F936F937F938F939F93AF93BF93EF9356
S1130630FF938091720190917301A0917401B09124
S113064075018093660190936701A0936801B0934C
S113065069018091660190916701A0916801B09150
S1130660690140916A0150916B0160916C01709134
S11306706D01841B950B4091660150916701609157
S113068068017091690140936A0150936B01609312
S11306906C0170936D019C01215031092E35310597
S11306A0A0F4E0914201F0914301EE0FFF1FEC5BD7
S11306B0FE4F918380838091420190914301019682
S11306C090934301809342012DC09C01205631092F
S11306D02836310538F5E0914201F0914301EE0FDF
S11306E0FF1FEC5BFE4F91838083109243011092B5
S11306F0420181E08093410120E030E0C901880F8C
S1130700991FFC01EC5BFE4F40815181FC01E55DCA
S1130710FE4F518340832F5F3F4F2B30310571F7DC
S11307200E949801FF91EF91BF91AF919F918F919A
S11307307F916F915F914F913F912F910F900FBED9
S11307400F901F90189508950F931F93CB01BA0132
S1130750689413F896958795779567951694D1F7CD
S1130760A90198010E947804215031093093C500F1
S11307702093C40088E18093C10086E08093C20086
S11307801F910F910895E0ECF0E0808185FFFDCF8B
S11307906093C6000895CF92DF92EF92FF920F9379
S11307A01F93CF93DF937C01EB018B01C12CD12CE0
S11307B0FE0101900020E9F73197EC1BFD0BCE16EA
S11307C0DF0650F4F80161918F01C7010E94C30351
S11307D0FFEFCF1ADF0AECCFDF91CF911F910F917A
S11307E0FF90EF90DF90CF90089540E054E264EFE3
S11307F070E08AE291E00E94840000E815E220E0C3
S113080030E040E054E264EF70E080EA91E00E945E
S1130810A40380911101882349F046E250E066E286
S113082070E08FE991E00E94AA0008C046E250E01F
S113083068E370E08FE991E00E94AA0001E111E011
S1130840809111018823D1F18AE291E00E949E00F7
S1130850C0909B01D0909C01E0909D01F0909E017E
S113086024EFC20E21E0D21EE11CF11C6C157D05A3
S11308708E059F0528F36CE171E080EA91E00E9407
S1130880CB03C0E0D1E069918FE991E00E946D0152
S11308908FE39CE90197F1F700C00000C017D1076E
S11308A091F78AE291E00E949E0060939B0170930D
S11308B09C0180939D0190939E01C2CF8FE991E0AA
S11308C00E946A01882309F4BBCF8FE991E00E945A
S11308D05201682F80EA91E00E94C303B1CF80EAFD
S11308E091E00E94A3038FE991E00E94A90008957A
S11308F0A1E21A2EAA1BBB1BFD010DC0AA1FBB1F20
S1130900EE1FFF1FA217B307E407F50720F0A21B91
S1130910B30BE40BF50B661F771F881F991F1A94FE
S113092069F760957095809590959B01AC01BD0128
S1130930CF010895EE0FFF1F0590F491E02D099467
S1070940F894FFCF55
S113094468656C6C6F20696E667261726564210AF5
S11309540001140028003C005000140073656E6408
S1090964696E67210A0020
S9030000FC
