:100000000C9436000C945E000C945E000C945E0020
:100010000C945E000C945E000C945E000C945E00E8
:100020000C945E000C945E000C945E000C945E00D8
:100030000C945E000C945E000C945E000C945E00C8
:100040000C945E000C945E000C945E000C945E00B8
:100050000C945E000C945E000C945E000C945E00A8
:100060000C945E000C945E00A4024F0311241FBE8A
:10007000CFEFD8E0DEBFCDBF11E0A0E0B1E0E6E217
:10008000FFE002C005900D92AE31B107D9F721E033
:10009000AEE1B1E001C01D92A632B207E1F710E077
:1000A000C6E3D0E004C02197FE010E94A104C4333E
:1000B000D107C9F70E94AE020C9491070C9400007E
:1000C000089529988EE191E00E94E803299A089505
:1000D0008F929F92AF92BF92CF92DF92EF92FF9258
:1000E0000F931F93CF93DF93EC01490181E0881AAE
:1000F0009108860E971EC401A0E0B0E04B01A12C30
:10010000B12C540199248824882A992AAA2ABB2A26
:10011000680181E0C81AD108C40ED51EE12CF12C6B
:1001200060E070E0BA0155274427C42AD52AE62AA0
:10013000F72A6AE2CE010E946100B501A4018EE1B6
:1001400091E00E94FD036BE2CE010E946100B701C5
:10015000A6018EE191E00E94FD036CE2CE010E94B7
:100160006100DF91CF911F910F91FF90EF90DF9091
:10017000CF90BF90AF909F908F900895CF93DF93D3
:10018000EC018EE191E00E942504219A299A8EE1EA
:1001900091E00E94550460ECCE010E94610063E290
:1001A0008EE191E00E94E80361ECCE010E946100C3
:1001B00060E18EE191E00E94E80365ECCE010E94CF
:1001C00061006EE38EE191E00E94E80368E28EE157
:1001D00091E00E94E80367ECCE010E94610066E8AE
:1001E0008EE191E00E94E80366E3CE010E94610087
:1001F00068E48EE191E00E94E80367E3CE010E948B
:10020000610060E08EE191E00E94E80360E08EE131
:1002100091E00E94E8036AE3CE010E94610065E577
:100220008EE191E00E94E80361EBCE010E94610043
:1002300060E08EE191E00E94E80368E18EE191E0E8
:100240000E94E80366EBCE010E94610068E08EE147
:1002500091E00E94E80362E88EE191E00E94E803E9
:1002600067E28EE191E00E94E80362EFCE010E9416
:10027000610060E08EE191E00E94E80366E2CE0159
:100280000E94610061E08EE191E00E94E80360EE6F
:10029000CE010E9461006FE08EE191E00E94E803D0
:1002A00061E38EE191E00E94E8036BE28EE191E070
:1002B0000E94E8036CE08EE191E00E94E8036EE0AA
:1002C0008EE191E00E94E80368E08EE191E00E94F7
:1002D000E8036EE48EE191E00E94E80361EF8EE1B5
:1002E00091E00E94E80367E38EE191E00E94E80359
:1002F00067E08EE191E00E94E80360E18EE191E029
:100300000E94E80363E08EE191E00E94E8036EE062
:100310008EE191E00E94E80369E08EE191E00E94A5
:10032000E80360E08EE191E00E94E80361EECE0117
:100330000E94610060E08EE191E00E94E8036EE0BF
:100340008EE191E00E94E80364E18EE191E00E9479
:10035000E80363E08EE191E00E94E80361E18EE151
:1003600091E00E94E80367E08EE191E00E94E803DB
:1003700061E38EE191E00E94E80361EC8EE191E09F
:100380000E94E80368E48EE191E00E94E80368E0DF
:100390008EE191E00E94E8036FE08EE191E00E941F
:1003A000E8036CE08EE191E00E94E80361E38EE1F6
:1003B00091E00E94E80366E38EE191E00E94E80389
:1003C0006FE08EE191E00E94E80361E1CE010E94BE
:1003D000610069E2CE010E9461008EE191E00E941D
:1003E0006804DF91CF910895CF92DF92EF92FF9250
:1003F0000F931F93CF93DF937C01EB018EE191E08C
:100400000E94550400E411E020EF30E040E050E0AD
:1004100060E070E0C7010E9468000F2EC12CFCE272
:10042000DF2EEE24E394F12CF02DBE018EE191E05D
:100430000E94ED0381E0C81AD108E108F108A9F78C
:100440008EE191E00E946804DF91CF911F910F919E
:10045000FF90EF90DF90CF9008954C7F842F90E035
:10046000880F991F880F991F880F991F2695269529
:100470002695822B687F962B0895CF92DF92EF927C
:10048000FF927C018EE191E00E94550469E0C70172
:100490000E94610061E08EE191E00E94790461E0D8
:1004A0008EE191E00E94790461E08EE191E00E948A
:1004B0007904C82E61E08EE191E00E947904D12C8C
:1004C000DC2CCC240D2C000CEE08FF08C82A8EE191
:1004D00091E00E946804C701B601FF90EF90DF90A1
:1004E000CF900895CF93DF93EC018EE191E00E94CD
:1004F00055046AE0CE010E94610060E08EE191E067
:100500000E947904C82F8EE191E00E9468048C2F2C
:10051000DF91CF910895CF93DF93EC018EE191E0CD
:100520000E9455046BE0CE010E94610060E08EE104
:1005300091E00E947904C82F8EE191E00E94680446
:100540008C2FDF91CF91089522E045E250E064E2E4
:1005500070E08EE191E00E94DD03089500E815E26D
:1005600020E030E040E054E264EF70E08FE191E0A1
:100570000E94590360E080E291E00E94BE0020E00A
:1005800040E06FEF80E291E00E942D02BC0180E22A
:1005900091E00E94F40160E071E08FE191E00E943F
:1005A000800380E291E00E943D026B017C016F2D8F
:1005B0007727882799278FE191E00E94AA036CE2B0
:1005C0008FE191E00E9478036E2D70E08FE191E061
:1005D0000E94AA036CE28FE191E00E947803BB279E
:1005E000AF2D9E2D8D2DBC0177278FE191E00E94CC
:1005F000AA036CE28FE191E00E947803B6017727AD
:100600008FE191E00E94AA036AE08FE191E00E94ED
:1006100078032FEF89E698E1215080409040E1F780
:1006200000C0000069E071E08FE191E00E9480036A
:1006300080E291E00E947202682F70E08FE191E009
:100640000E94AA036AE08FE191E00E9478032FEFF5
:1006500089E698E1215080409040E1F700C0000019
:1006600061E171E08FE191E00E94800380E291E01E
:100670000E948B02682F70E08FE191E00E94AA0334
:100680006AE08FE191E00E9478032FEF89E698E11C
:10069000215080409040E1F700C000007CCF80E214
:1006A00091E00E9460008FE191E00E94580308955C
:1006B00008950F931F93CB01BA01689413F8969590
:1006C0008795779567951694D1F7A90198010E94AF
:1006D0007F04215031093093C5002093C40088E184
:1006E0008093C10086E08093C2001F910F9108950E
:1006F000E0ECF0E0808185FFFDCF6093C6000895B7
:10070000CF92DF92EF92FF920F931F93CF93DF93DD
:100710007C01EB018B01C12CD12CFE01019000204A
:10072000E9F73197EC1BFD0BCE16DF0650F4F8010C
:1007300061918F01C7010E947803FFEFCF1ADF0A92
:10074000ECCFDF91CF911F910F91FF90EF90DF9051
:10075000CF900895EF92FF920F931F93CF93DF9363
:10076000CDB7DEB764970FB6F894DEBF0FBECDBF2E
:100770007C017F936F938BE191E09F938F938E0128
:100780000F5F1F4F1F930F930E94A704B801C7016B
:100790000E9480030F900F900F900F900F900F907A
:1007A00064960FB6F894DEBF0FBECDBFDF91CF9138
:1007B0001F910F91FF90EF90089570932501609322
:1007C0002401509323014093220120932101089595
:1007D0006EBD0DB407FEFDCF08951F93CF93DF9339
:1007E000EC01162F672F0E94E803612FCE010E94B3
:1007F000E803DF91CF911F910895CF92DF92EF929E
:10080000FF92CF93DF93EC016A017B016F2D772775
:1008100088279927CE010E94E803B70188279927E6
:10082000CE010E94E80399278F2D7E2D6D2DCE01DC
:100830000E94E8036C2DCE010E94E803DF91CF9166
:10084000FF90EF90DF90CF90089520912101E091EB
:100850002401F0912501408181E090E0BC0102C0BB
:10086000660F771F2A95E2F79B01242B2083309196
:100870002101E0912201F0912301208102C0880F23
:10088000991F3A95E2F7809590958223808384B1F1
:10089000886284B924988CB5806D8CBD8CB58E7FB0
:1008A0008CBD8CB58D7F8CBD089530912101E09178
:1008B0002201F0912301208181E090E002C0880FA5
:1008C000991F3A95E2F78095909582238083089549
:1008D00030912101E0912201F0912301208181E0FA
:1008E00090E002C0880F991F3A95E2F7822B80832F
:1008F00008956EBD0DB407FEFDCF8EB50895A1E23B
:100900001A2EAA1BBB1BFD010DC0AA1FBB1FEE1F89
:10091000FF1FA217B307E407F50720F0A21BB30BD4
:10092000E40BF50B661F771F881F991F1A9469F750
:1009300060957095809590959B01AC01BD01CF01AC
:100940000895EE0FFF1F0590F491E02D0994AEE09D
:10095000B0E0EDEAF4E00C9468070D891E8986E0AA
:100960008C831A8309838FEF9FE79E838D83AE016B
:10097000475E5F4F6F89788DCE0101960E94C90452
:10098000EF81F885E00FF11F10822E96E4E00C94C1
:100990008407ABE0B0E0EFECF4E00C945A076C0194
:1009A0007B018A01FC0117821682838181FFCCC101
:1009B000CE0101963C01F6019381F70193FD8591EB
:1009C00093FF81917F01882309F4BAC1853239F4FC
:1009D00093FD859193FF81917F01853229F4B601C2
:1009E00090E00E94C006E7CF912C212C312CFFE132
:1009F000F315D8F08B3279F038F4803279F0833205
:100A0000A1F4232D20611DC08D3261F0803369F483
:100A1000232D216016C0832D8260382EE32DE460E3
:100A20003E2E2AC0F32DF8601DC037FC2DC020EDEE
:100A3000280F2A3040F08E32B9F436FC81C1232DC4
:100A40002064322E19C036FE06C08AE0989E200D22
:100A50001124922E11C0EAE02E9E200D1124222E88
:100A6000F32DF0623F2E08C08C3621F4832D806870
:100A7000382E02C0883641F4F70193FD859193FF2B
:100A800081917F018111B3CF982F9F7D9554933031
:100A900028F40C5F1F4F9FE399830DC0833631F01C
:100AA000833771F0833509F059C021C0F801808186
:100AB00089830E5F1F4F88248394912C530113C0A8
:100AC0002801F2E04F0E511CF801A080B18036FEE3
:100AD00003C0692D70E002C06FEF7FEFC5010E9477
:100AE000B5064C018201F32DFF773F2E16C0280179
:100AF00022E0420E511CF801A080B18036FE03C0F6
:100B0000692D70E002C06FEF7FEFC5010E94AA0659
:100B10004C01F32DF0683F2E820133FC1BC0822D67
:100B200090E088169906B0F4B60180E290E00E9449
:100B3000C0062A94F4CFF50137FC859137FE8191E8
:100B40005F01B60190E00E94C00621102A9421E0C6
:100B5000821A91088114910471F7E8C0843611F06B
:100B6000893641F5F80137FE07C0608171818281C5
:100B700093810C5F1F4F08C060817181072E000CAC
:100B8000880B990B0E5F1F4FF32DFF763F2E97FFBB
:100B900009C090958095709561957F4F8F4F9F4FBD
:100BA000F0683F2E2AE030E0A3010E94FC06882E68
:100BB000861845C0853731F4232D2F7EB22E2AE0CA
:100BC00030E025C0932D997FB92E8F36C1F018F4EF
:100BD000883579F0B5C0803719F0883721F0B0C07A
:100BE000E92FE061BE2EB4FE0DC0FB2DF460BF2ED8
:100BF00009C034FE0AC0292F2660B22E06C028E0A4
:100C000030E005C020E130E002C020E132E0F80130
:100C1000B7FE07C060817181828193810C5F1F4F95
:100C200006C06081718180E090E00E5F1F4FA301DC
:100C30000E94FC06882E8618FB2DFF773F2E36FE7D
:100C40000DC0232D2E7FA22E891458F434FE0BC024
:100C500032FC09C0832D8E7EA82E05C0B82CA32C93
:100C600003C0B82C01C0B92CA4FE0FC0FE01E80DD2
:100C7000F11D8081803321F49A2D997EA92E09C01F
:100C8000A2FE06C0B394B39404C08A2D867809F0FE
:100C9000B394A3FC11C0A0FE06C0B21488F4280CC3
:100CA000922C9B180EC0B21460F4B60180E290E062
:100CB0000E94C006B394F7CFB21418F42B1802C0E8
:100CC000982C212CA4FE10C0B60180E390E00E9475
:100CD000C006A2FE17C0A1FC03C088E790E002C0D6
:100CE00088E590E0B6010CC08A2D867859F0A1FE07
:100CF00002C08BE201C080E2A7FC8DE2B60190E069
:100D00000E94C006891438F4B60180E390E00E9486
:100D1000C0069A94F7CF8A94F301E80DF11D808103
:100D2000B60190E00E94C0068110F5CF222009F4A0
:100D300042CEB60180E290E00E94C0062A94F6CF2F
:100D4000F6018681978102C08FEF9FEF2B96E2E13B
:100D50000C947607FC010590615070400110D8F7A3
:100D6000809590958E0F9F1F0895FC0161507040F3
:100D700001900110D8F7809590958E0F9F1F0895D0
:100D80000F931F93CF93DF93FB01238121FD03C0BA
:100D90008FEF9FEF2CC022FF16C046815781248120
:100DA00035814217530744F4A081B1819D012F5F23
:100DB0003F4F318320838C93268137812F5F3F4FB4
:100DC0003783268314C08B01EC01FB010084F1857D
:100DD000E02D0995892BE1F6D80116968D919C910D
:100DE0001797019617969C938E931697CE01DF91D5
:100DF000CF911F910F910895FA01AA27283051F140
:100E0000203181F1E8946F936E7F6E5F7F4F8F4F3B
:100E10009F4FAF4FB1E03ED0B4E03CD0670F781F9A
:100E2000891F9A1FA11D680F791F8A1F911DA11D7F
:100E30006A0F711D811D911DA11D20D009F46894B8
:100E40003F912AE0269F11243019305D3193DEF660
:100E5000CF010895462F4770405D4193B3E00FD016
:100E6000C9F7F6CF462F4F70405D4A3318F0495D01
:100E700031FD4052419302D0A9F7EACFB4E0A695E4
:100E80009795879577956795BA95C9F70097610506
:100E9000710508959B01AC010A2E0694579547955C
:100EA00037952795BA95C9F7620F731F841F951F51
:100EB000A01D08952F923F924F925F926F927F9262
:100EC0008F929F92AF92BF92CF92DF92EF92FF925A
:100ED0000F931F93CF93DF93CDB7DEB7CA1BDB0B06
:100EE0000FB6F894DEBF0FBECDBF09942A883988AB
:100EF00048885F846E847D848C849B84AA84B984B2
:100F0000C884DF80EE80FD800C811B81AA81B981BD
:100F1000CE0FD11D0FB6F894DEBF0FBECDBFED01D1
:060F20000895F894FFCFD4
:100F26007374617475733A2000706F7765723A2036
:0E0F3600006D6F64653A20002564002575008B
:00000001FF
