:100000000C9435000C945D000C945D000C945D0024
:100010000C945D000C945D000C945D000C945D00EC
:100020000C945D000C945D000C945D000C945F00DA
:100030000C945D000C945D000C945D000C945D00CC
:100040000C945D000C945D000C945D000C945D00BC
:100050000C945D000C945D000C945D000C945D00AC
:100060000C945D000C945D00D70111241FBECFEFEE
:10007000D8E0DEBFCDBF11E0A0E0B1E0E0EFF5E0F9
:1000800002C005900D92A835B107D9F721E0A8E587
:10009000B1E001C01D92A336B207E1F710E0C5E35D
:1000A000D0E004C02197FE010E94E902C433D107C9
:1000B000C9F70E9477010C94F6020C9400001F927D
:1000C0000F920FB60F9211248F939F93AF93BF930C
:1000D0008091580190915901A0915A01B0915B0112
:1000E0000196A11DB11D8093580190935901A093D1
:1000F0005A01B0935B01BF91AF919F918F910F9087
:100100000FBE0F901F901895EF92FF920F931F93C1
:10011000CF93DF931F92CDB7DEB78983CE010196CF
:100120000E948A02CE0101960E94D2020AE010E0EB
:100130006FEFCE0101960E94E30201501109C1F751
:10014000CE0101960E94BF0260E4CE0101960E949A
:10015000E30260E0CE0101960E94E30260E0CE017E
:1001600001960E94E30260E0CE0101960E94E30244
:1001700060E0CE0101960E94E30265E9CE0101969E
:100180000E94E30218E0F12C01E06FEF8DE591E0B1
:100190000E94E302813009F4F02E1150B1F761E4BE
:1001A000CE0101960E94E30260E0CE0101960E941A
:1001B000E30260E0CE0101960E94E30260E0CE011E
:1001C00001960E94E30260E0CE0101960E94E302E4
:1001D0006FEFCE0101960E94E30218E000E0EE24EA
:1001E000E3946FEF8DE591E00E94E302813009F422
:1001F0000E2D1150B1F7802F880F8F290F90DF91AE
:10020000CF911F910F91FF90EF9008954F925F92C1
:100210006F927F928F929F92AF92BF92CF92DF9216
:10022000EF92FF920F931F93C82E2A013B01D22E0B
:10023000470158018DE591E00E94BF026C2D8DE5CC
:1002400091E00E94E302672D7727882799278DE5A3
:1002500091E00E94E302B301882799278DE591E0A0
:100260000E94E3029927872D762D652D8DE591E07B
:100270000E94E302642D8DE591E00E94E3026D2D62
:100280008DE591E00E94E302EF28E02AE12AE1F007
:10029000C12CD12C76016FEF8DE591E00E94E30235
:1002A000682F8CE591E00E94FA0160E28CE591E014
:1002B0000E94F2018FEFC81AD80AE80AF80A8C14D3
:1002C0009D04AE04BF0439F78DE591E00E94D2028F
:1002D0001F910F91FF90EF90DF90CF90BF90AF9064
:1002E0009F908F907F906F905F904F90089500E85F
:1002F00015E220E030E040E054E264EF70E08CE58D
:1003000091E00E94E60160E071E08CE591E00E94DE
:100310001C0280E00E948400813069F028F0823065
:1003200089F08330B1F01BC061E171E08CE591E0B0
:100330000E941C0214C06EE071E08CE591E00E9406
:100340001C020DC06EE171E08CE591E00E941C0280
:1003500006C06FE271E08CE591E00E941C0268E348
:1003600071E08CE591E00E941C0218E0E12EF12C76
:1003700000E010E02FEF40E052E060E070E080E548
:100380000E9406016BE471E08CE591E00E941C0282
:1003900010E1E12E17E2F12E00E010E02FEF4AE02D
:1003A00050E060E070E081E50E940601FFCF24E0AC
:1003B0004BE250E06AE270E08DE591E00E947F023E
:1003C0008CE591E00E94E501089508951092C50022
:1003D00088E08093C40088E18093C10086E0809328
:1003E000C2000895E0ECF0E0808185FFFDCF6093CE
:1003F000C60008950F931F93CF938C01962F92956B
:100400009F70862F8F709A3018F067E3690F02C0D3
:1004100060E3690F8A3018F0C7E3C80F02C0C0E379
:10042000C80FC8010E94F2016C2FC8010E94F2019E
:10043000CF911F910F9108954F925F926F927F928B
:100440008F929F92AF92BF92CF92DF92EF92FF92E4
:100450000F931F93CF93DF93CDB7DEB77C01CDB65B
:10046000DEB6FB0101900020E9F731974F01861AB3
:10047000970AC40101962DB73EB7281B390B0FB65A
:10048000F8943EBF0FBE2DBF0DB71EB70F5F1F4FB5
:10049000C8010E94EF02F801E80DF91D1082A12C9D
:1004A000B12C81149104A104B10499F0412C512C78
:1004B0003201F80161918F01C7010E94F201FFEF43
:1004C0004F1A5F0A6F0A7F0A481459046A047B04B2
:1004D00080F30FB6F894DEBE0FBECDBEDF91CF9194
:1004E0001F910F91FF90EF90DF90CF90BF90AF9052
:1004F0009F908F907F906F905F904F900895709332
:100500006201609361015093600140935F01209309
:100510005E010895229A2A9A20915E01E09161017C
:10052000F0916201408181E090E0BC0102C0660F61
:10053000771F2A95E2F79B01242B208330915E01DF
:10054000E0915F01F0916001208102C0880F991F46
:100550003A95E2F7809590958223808384B18862F2
:1005600084B924988CB580658CBD8DB58E7F8DBD8A
:100570008CB581608CBD8CB582608CBD0895309146
:100580005E01E0915F01F0916001208181E090E0E7
:1005900002C0880F991F3A95E2F7809590958223C3
:1005A0008083089530915E01E0915F01F0916001D8
:1005B000208181E090E002C0880F991F3A95E2F710
:1005C000822B808308956EBD0DB407FEFDCF8EB5DE
:1005D0000895EE0FFF1F0590F491E02D0994FB01A3
:1005E000DC0101900D920020E1F70895F894FFCF0F
:1005F00073642073706920696E6974210A007364E2
:1006000020696E6974206661696C65640A007370A4
:100610006920696E6974206661696C65640A00739B
:100620007563636573210A00736574207472616E6B
:10063000736665722073697A650A00726561642069
:08064000736563746F720A0018
:00000001FF
